:100000000C9441010C9472010C9472010C947201D5
:100010000C9472010C9472010C9472010C94720194
:100020000C9472010C9472010C9472010C94720184
:100030000C9472010C9472010C9472010C94720174
:100040000C9472010C94B6020C9472010C9472011F
:100050000C9472010C9472010C9472010C9442087D
:100060000C9472010C9493060C94C9060C947201C2
:100070000C9472010C9472010C9472010C94720134
:100080000C94E4020C9472010C9472010C947201B1
:100090000C9472010C9472010C9472010C94720114
:1000A0000C9472010C9472010C9412030C94720162
:1000B0000C9472010C9472010C9472010C94400324
:1000C0000C9472010C9472010C9472010C947201E4
:1000D0000C9472010C9472010C9472010C947201D4
:1000E0000C94720182098509740978097E09BC099A
:1000F00089098D09930997099B09A109A509A909EE
:10010000BC09AF09B309B7090C942A050C9438054A
:100110000C94BC090C94F3060C9478090C944007D9
:100120000C94FD060C9474090C94AA050C941F05FC
:100130000C948D090C94A9090C94E2010C94970974
:100140000C94B3090C9419050C9485090C94AF090F
:100150000C94A5090C94A1090C9482090C94CC056B
:100160000C9489090C94B7090C944C050C947E09E5
:100170000C9493090C949B0900000A0B02090C0DC6
:100180000E0807030401000000000000000000004A
:10019000000000000000000000000000000000005F
:1001A000000000001211100000000000000000001C
:1001B000000000000000000000000000000001023C
:1001C0001020200808102040102040800201020169
:1001D0000804020101020408102040808040201021
:1001E000080402018004020180402010080402017A
:1001F00008040201010204081020408001020408E2
:1002000010204080050505050705080808080202BA
:1002100002020A0A080804040404010101010101A0
:1002200001010303030303030303040707070C0C83
:100230000C0C0C0C0C0C020202020606060606064A
:1002400006060B0B0B0B0B0B0B0B00002200250003
:1002500028002B002E0031003400020100000501AF
:1002600008010B0100002100240027002A002D00B6
:100270003000330001010000040107010A01E2011E
:10028000FD0611241FBECFEFD1E2DEBFCDBF00E0DF
:100290000CBF12E0A0E0B2E0E6EBF4E100E00BBF3F
:1002A00002C007900D92A433B107D9F723E0A4E36D
:1002B000B2E001C01D92AD38B207E1F712E0C2E82A
:1002C000D2E000E006C022970109FE010BBF0E94A8
:1002D000550ACE37D10780E00807A9F70E943308F6
:1002E0000C94590A0C94000026E040E855E260E0C6
:1002F00070E087EE92E00E94310620E042E060E18B
:1003000084E392E00C943804809106020E94440930
:1003100090934F0280934E02809104020E94440900
:1003200090934D0280934C02809108020E944409F0
:10033000909351028093500284E392E00E9417044C
:1003400040E060E084E392E00E941E046BE072E013
:1003500084E392E00E947E0760914E0270914F020A
:100360004AE050E084E392E00E942A0841E060E025
:1003700084E392E00E941E0460E172E084E392E074
:100380000E947E0760914C0270914D024AE050E05D
:1003900084E392E00E942A0865E172E084E392E03F
:1003A0000E947E0760915002709151024AE050E035
:1003B00084E392E00E942A0864EF71E080E090E01C
:1003C0000C94AF08CF92EF920F9386E2C82E94E27E
:1003D000E92E02E220E24EE16FE184E392E00E9426
:1003E000F3040F91EF90CF900895CF92DF92EF92A8
:1003F000FF920F931F93CF93DF936C018B017A01D0
:10040000EC01CD5ADD4F888187FF04C0FB011182CA
:10041000108223C02CE02C9DC0012D9D900D112435
:100420002881AC01420F511D27FD5A95209152029F
:1004300030E0421753078CF42881AC01420F511D64
:1004400027FD5A959A01FA01EE0FFF1FE20FF31FE5
:10045000E95AFD4F208126FD19C088818F5F88836E
:100460008CE08C9D90018D9D300D11248881A90117
:10047000480F511D87FD5A958091520290E0481710
:100480005907B4F488818C303CF112C02881820F66
:10049000911D27FD9A95FC01EE0FFF1FE80FF91F34
:1004A000E95AFD4F808160E08F730E94F609D5CF35
:1004B000F80180819181049680349C4918F480E48D
:1004C0009CE904C0F801808191810496F701918331
:1004D00080838FEF888341C0F801808191814881BA
:1004E000B901640F711D47FD7A95AB01FB01EE0F59
:1004F000FF1FE40FF51FE95AFD4F41815281840F20
:10050000951FF701918380838881A901480F511DB0
:1005100087FD5A95FA01EE0FFF1FE40FF51FE95A08
:10052000FD4F808186FF19C08881280F311D87FD0E
:100530003A95F901EE0FFF1FE20FF31FE95AFD4F45
:10054000808161E08F73DF91CF911F910F91FF90B8
:10055000EF90DF90CF900C94F609DF91CF911F912F
:100560000F91FF90EF90DF90CF9008951F920F9220
:100570000FB60F9211240BB60F922F933F934F9308
:100580005F936F937F938F939F93AF93BF93EF93FB
:10059000FF9348E850E064E870E081E090E00E945A
:1005A000F501FF91EF91BF91AF919F918F917F9155
:1005B0006F915F914F913F912F910F900BBE0F90D4
:1005C0000FBE0F901F9018951F920F920FB60F92AB
:1005D00011240BB60F922F933F934F935F936F931A
:1005E0007F938F939F93AF93BF93EF93FF9348E9CC
:1005F00050E064E970E082E090E00E94F501FF9134
:10060000EF91BF91AF919F918F917F916F915F918A
:100610004F913F912F910F900BBE0F900FBE0F90F7
:100620001F9018951F920F920FB60F9211240BB6C0
:100630000F922F933F934F935F936F937F938F937B
:100640009F93AF93BF93EF93FF9348EA50E064EA20
:1006500070E083E090E00E94F501FF91EF91BF917F
:10066000AF919F918F917F916F915F914F913F914A
:100670002F910F900BBE0F900FBE0F901F901895EB
:100680001F920F920FB60F9211240BB60F922F9359
:100690003F934F935F936F937F938F939F93AF930A
:1006A000BF93EF93FF9348E251E064E271E080E092
:1006B00090E00E94F501FF91EF91BF91AF919F9162
:1006C0008F917F916F915F914F913F912F910F90FB
:1006D0000BBE0F900FBE0F901F901895CF93DF9316
:1006E000EC0160E08E810E94F60981E090E00E94BA
:1006F000D70861E08E810E94F60981E090E00E94B7
:10070000D70860E08E810E94F60984E690E0DF91D0
:10071000CF910C94D708CF92DF92EF92FF920F9374
:100720001F93CF93DF937C01C0E0D0E0C62ED12C85
:1007300087010C0F1D1F61E0F80187810E94BD0930
:10074000B6010C2E02C0759567950A94E2F76170A8
:10075000F80187810E94F6092196C430D10541F73E
:10076000C701DF91CF911F910F91FF90EF90DF9024
:10077000CF900C946E03CF92DF92EF92FF920F9383
:100780001F93CF93DF937C01C0E0D0E0C62ED12C25
:1007900087010C0F1D1F61E0F80187810E94BD09D0
:1007A000B6010C2E02C0759567950A94E2F7617048
:1007B000F80187810E94F6092196C830D10541F7DA
:1007C000C701DF91CF911F910F91FF90EF90DF90C4
:1007D000CF900C946E031F93CF93DF93EC01162FF1
:1007E000642F8C810E94F6098D818F3F19F060E0A3
:1007F0000E94F6098F85612F84FF06C0CE01DF912C
:10080000CF911F910C94BB0370E084E075956795C0
:100810008A95E1F7CE010E948B03612FCE01DF9113
:10082000CF911F910C948B0340E00C94EB0361E09B
:100830000E94140480ED97E00C94D708443008F02F
:1008400043E0FC012389421710F04FEF420FFC01F7
:10085000E40FF11D2489260F2068622F0C941404E4
:10086000FC016089262F2460208B6C600C9414049A
:10087000CF93DF93EC01423018F08F8588608F872B
:100880004B8B1C8A80E48D8B6E8B70E0605C7F4F9D
:100890006F8B222329F0413019F48F8584608F8774
:1008A00080E593EC0E94D70860E08C810E94F609F5
:1008B00060E08E810E94F6098D818F3F19F060E023
:1008C0000E94F6096F8564FD1DC063E0CE010E94A1
:1008D0008B0384E991E10E94D70863E0CE010E9476
:1008E0008B0384E991E10E94D70863E0CE010E9466
:1008F0008B0386E990E00E94D70862E0CE010E9457
:100900008B0316C06062CE010E94140484E991E159
:100910000E94D7086F856062CE010E94140486E9A8
:1009200090E00E94D7086F856062CE010E94140497
:100930006F856062CE010E94140484E0888BCE0132
:100940000E943004CE010E94170482E0898B66E089
:10095000CE01DF91CF910C9414046F927F928F920D
:10096000AF92CF92EF920F931F93CF93DF93CDB7B8
:10097000DEB73C01162F842F5E854F853889998913
:10098000F301848325830683E782C086A18682865D
:10099000538744873587968761E00E94BD09F3013C
:1009A00085818F3F19F061E00E94BD0961E0F3018C
:1009B00086810E94BD09112319F0F301178603C037
:1009C00080E1F301878720E041E060E1C301DF912E
:1009D000CF911F910F91EF90CF90AF908F907F901C
:1009E0006F900C9438048F92AF92CF92EF920F9346
:1009F000DC0113961C921E921297EFE1F2E0ED9348
:100A0000FC931F921F921F921F928C2CAE2CC02E13
:100A1000E22E042F2FEF462F61E00E94AD040F90CD
:100A20000F900F900F900F91EF90CF90AF908F900D
:100A3000089541E00E94EB0381E090E00895FC01FD
:100A4000818D228D90E0805C9F4F821B91098F7376
:100A500099270895FC01918D828D981731F0828D30
:100A6000E80FF11D858D90E008958FEF9FEF0895B9
:100A7000FC01918D828D981761F0828DDF01A80FA6
:100A8000B11D5D968C91928D9F5F9F73928F90E0C8
:100A900008958FEF9FEF089583EF96E0892B41F043
:100AA00080E090E0892B21F00E94F306811125C09F
:100AB00080E090E0892B41F080E090E0892B21F0EC
:100AC0000E94000081111CC080E090E0892B41F061
:100AD00080E090E0892B21F00E940000811113C07A
:100AE00080E090E0892BA1F080E090E0892B81F0FC
:100AF0000E94000081110AC008950E940000D8CF12
:100B00000E940000E1CF0E940000EACF0C94000098
:100B10000895FC01848DDF01A80FB11DA35ABF4FBA
:100B20002C91848D90E001968F739927848FA689EC
:100B3000B7892C93A089B1898C9180648C93938D13
:100B4000848D981306C00288F389E02D80818F7D03
:100B500080830895CF93DF93EC01888D8823C9F0BB
:100B6000EA89FB89808185FD05C0A889B9898C91B6
:100B700086FD0FC00FB607FCF5CF808185FFF2CF51
:100B8000A889B9898C9185FFEDCFCE010E94890596
:100B9000E7CFDF91CF910895CF92DF92FF920F932D
:100BA0001F93CF93DF931F92CDB7DEB76C0181E027
:100BB000D60158968C9358975B969C915B975C9660
:100BC0008C915C97981307C05096ED91FC915197CA
:100BD000808185FD2EC0F601038D10E00F5F1F4F51
:100BE0000F731127F02EF601848DF81211C00FB685
:100BF00007FCF9CFD6015096ED91FC915197808179
:100C000085FFF1CFC60169830E9489056981EBCF19
:100C1000838DE80FF11DE35AFF4F6083D6015B9689
:100C20000C935B975296ED91FC9153978081806273
:100C30000CC0D6015696ED91FC9157976083509663
:100C4000ED91FC91519780818064808381E090E0F8
:100C50000F90DF91CF911F910F91FF90DF90CF9078
:100C60000895BF92CF92DF92EF92FF92CF93DF93DE
:100C7000EC016A017B01B22EE889F98982E0808368
:100C8000411581EE580761057105A1F060E079E03A
:100C90008DE390E0A70196010E942D0A21503109B1
:100CA000410951095695479537952795211580E1BA
:100CB000380798F0E889F989108260E874E88EE1D5
:100CC00090E0A70196010E942D0A215031094109A7
:100CD00051095695479537952795EC85FD853083C5
:100CE000EE85FF852083188EEC89FD89B082EA8924
:100CF000FB89808180618083EA89FB8980818860AB
:100D00008083EA89FB89808180688083EA89FB8906
:100D100080818F7D8083DF91CF91FF90EF90DF9076
:100D2000CF90BF9008951F920F920FB60F9211248B
:100D30000BB60F922F938F939F93EF93FF93E091B6
:100D4000F702F091F8028081E091FD02F091FE023D
:100D500082FD12C09081809100038F5F8F7320917C
:100D60000103821751F0E0910003F0E0E951FD4FDB
:100D7000958F8093000301C08081FF91EF919F9137
:100D80008F912F910F900BBE0F900FBE0F901F9061
:100D900018951F920F920FB60F9211240BB60F9257
:100DA0002F933F934F935F936F937F938F939F9373
:100DB000AF93BF93EF93FF9387EE92E00E94890574
:100DC000FF91EF91BF91AF919F918F917F916F9123
:100DD0005F914F913F912F910F900BBE0F900FBEDF
:100DE0000F901F90189587EE92E00E941F0521E05A
:100DF000892B09F420E0822F08951092EA021092C4
:100E0000E90288EE93E0A0E0B0E08093EB029093DB
:100E1000EC02A093ED02B093EE0287E292E0909391
:100E2000E8028093E70285EC90E09093F4028093CF
:100E3000F30284EC90E09093F6028093F50280EC4C
:100E400090E09093F8028093F70281EC90E0909309
:100E5000FA028093F90282EC90E09093FC02809376
:100E6000FB0286EC90E09093FE028093FD021092CC
:100E700000031092010310920203109203030895DD
:100E8000CF92DF92EF92FF920F931F93CF93DF9356
:100E90006C017A01EB01E60EF71E00E010E0CE15C2
:100EA000DF0561F06991D601ED91FC910190F0812F
:100EB000E02DC6011995080F191FF1CFC801DF9168
:100EC000CF911F910F91FF90EF90DF90CF900895F9
:100ED0006115710581F0DB010D900020E9F7AD018E
:100EE00041505109461B570BDC01ED91FC910280EA
:100EF000F381E02D199480E090E008950C94680748
:100F0000DC01ED91FC910190F081E02D19948F921C
:100F10009F92AF92BF92CF92DF92EF92FF920F9388
:100F20001F93CF93DF93CDB7DEB7A1970FB6F89499
:100F3000DEBF0FBECDBF7C01C42EE52FCB01D22E6C
:100F400019A221E02D1510F02AE0D22E8E010F5D9E
:100F50001F4F8D2C912CA12CB12C6C2D7E2FA50117
:100F600094010E942D0A8C2DD29E801911240150CB
:100F700011098A3014F4805D01C0895CF801808316
:100F8000211531054105510521F0C22EE32FCA017B
:100F9000E4CFB801C7010E946807A1960FB6F89484
:100FA000DEBF0FBECDBFDF91CF911F910F91FF909C
:100FB000EF90DF90CF90BF90AF909F908F9008956B
:100FC000CF92DF92EF92FF920F931F93CF93DF9315
:100FD000EC016A017B012115310579F4E881F98181
:100FE0000190F081E02D642FDF91CF911F910F913F
:100FF000FF90EF90DF90CF9019942A303105E9F4FB
:1010000077FF1AC06DE20E9480078C0144275527A4
:10101000BA014C195D096E097F092AE0CE010E94D0
:101020008707800F911FDF91CF911F910F91FF9044
:10103000EF90DF90CF9008952AE0B701A601CE018E
:10104000DF91CF911F910F91FF90EF90DF90CF90A4
:101050000C9487079A01AB01662757FD6095762FA0
:101060000C94E00708950E94E2080E9432080E9452
:101070007401CCE4D5E00E9484012097E1F30E9442
:101080004C05F9CF1F920F920FB60F9211242F9398
:101090003F938F939F93AF93BF93809185039091DC
:1010A0008603A0918703B09188033091840323E0E5
:1010B000230F2D3720F40196A11DB11D05C026E890
:1010C000230F0296A11DB11D2093840380938503F5
:1010D00090938603A0938703B0938803809189033C
:1010E00090918A03A0918B03B0918C030196A11D6E
:1010F000B11D8093890390938A03A0938B03B093CF
:101100008C03BF91AF919F918F913F912F910F9041
:101110000FBE0F901F9018953FB7F89480918903E8
:1011200090918A03A0918B03B0918C0326B5A89B64
:1011300005C02F3F19F00196A11DB11D3FBF6627C5
:10114000782F892F9A2F620F711D811D911D42E00A
:10115000660F771F881F991F4A95D1F70895CF9280
:10116000DF92EF92FF92CF93DF936B017C010E949D
:101170008C08EB01C114D104E104F10489F00E9450
:101180002C0A0E948C086C1B7D0B683E734090F308
:1011900081E0C81AD108E108F108C851DC4FEACF54
:1011A000DF91CF91FF90EF90DF90CF900895823044
:1011B000910538F0880F991F880F991F059701979F
:1011C000F1F70895789484B5826084BD84B5816018
:1011D00084BD85B5826085BD85B5816085BDEEE63F
:1011E000F0E0808181608083E1E8F0E0108280811E
:1011F00082608083808181608083E0E8F0E080818C
:1012000081608083E1EBF0E0808184608083E0EBAB
:10121000F0E0808181608083E1E9F0E0808182609C
:101220008083808181608083E0E9F0E0808181605B
:101230008083E1EAF0E08081826080838081816048
:101240008083E0EAF0E0808181608083E1E2F1E088
:10125000808182608083808181608083E0E2F1E030
:10126000808181608083EAE7F0E080818460808310
:1012700080818260808380818160808380818068BA
:1012800080831092C1000895863308F08653209120
:101290007B00982F9870277F922B90937B0087700C
:1012A00020910A0290E4299F90011124822B8093BF
:1012B0007C0080917A00806480937A0080917A002B
:1012C00086FDFCCF809178002091790090E0922BF0
:1012D000089590E0FC013197E231F10508F04CC02F
:1012E000EE58FF4F0C944F0A809180008F7703C017
:1012F000809180008F7D8093800008958091800090
:10130000877FF9CF84B58F7702C084B58F7D84BD88
:1013100008958091B0008F7703C08091B0008F7DD9
:101320008093B0000895809190008F7707C08091DE
:1013300090008F7D03C080919000877F8093900004
:1013400008958091A0008F7707C08091A0008F7DC5
:1013500003C08091A000877F8093A00008958091B2
:1013600020018F7707C0809120018F7D03C080917D
:101370002001877F809320010895CF93DF9390E031
:10138000FC01E254FE4F2491FC01EC5FFD4F84917F
:10139000882349F190E0880F991FFC01EC59FD4F1B
:1013A000A591B491865B9D4FFC01C591D4919FB7E7
:1013B000611108C0F8948C91209582238C938881C8
:1013C00082230AC0623051F4F8948C91322F309508
:1013D00083238C938881822B888304C0F8948C911A
:1013E000822B8C939FBFDF91CF9108950F931F9312
:1013F000CF93DF931F92CDB7DEB7282F30E0F901EE
:10140000E858FE4F8491F901E254FE4F1491F9011E
:10141000EC5FFD4F04910023C9F0882321F069831C
:101420000E9469096981E02FF0E0EE0FFF1FE65B83
:10143000FD4FA591B4919FB7F8948C91611103C0B1
:101440001095812301C0812B8C939FBF0F90DF915A
:10145000CF911F910F9108950895A1E21A2EAA1B12
:10146000BB1BFD010DC0AA1FBB1FEE1FFF1FA21754
:10147000B307E407F50720F0A21BB30BE40BF50B51
:10148000661F771F881F991F1A9469F760957095DA
:10149000809590959B01AC01BD01CF010895EE0FA1
:1014A000FF1F0590F491E02D19940790F691E02D1F
:0614B0001994F894FFCF2F
:1014B600010000000F000E000D000179203D200004
:1014C60078203D2000207A203D20000000000019F1
:1014D60005400700000000CC0540071F0538052A17
:0414E60005AA05004E
:00000001FF
